:020000040800F2
:10000000F0FF012035BB0508C94905080DC60108E8
:10001000ADBB0508ADBB0508ADBB05080000000081
:10002000000000000000000000000000CD490508AD
:10003000D149050800000000D5490508059E0008C3
:10004000ADBB0508ADBB0508ADBB0508ADBB0508DC
:10005000ADBB0508ADBB050811B1000819B100081A
:1000600021B1000829B1000831B1000861AC0008D5
:1000700075AC000889AC00089DAC0008B1AC000864
:10008000C5AC0008D9AC0008ADBB050800000000F5
:1000900000000000000000000000000039B100086E
:1000A00009C90008A1C8000819C9000891C80008BA
:1000B000C9C80008D9C80008E9C8000881A9000813
:1000C0002DB8000889A9000831B80008ADBB0508A3
:1000D000ADBB0508D5380508E1380508000000006B
:1000E00041B10008ADBB0508814B050800000000C8
:1000F000000000000000000000000000EDAC00085F
:1001000000000000ADBB0508F9C80008ADBB05083C
:1001100000000000000000000000000000000000DF
:1001200001AD000815AD000829AD00083DAD00087F
:1001300051AD0008000000000000000000000000B9
:10014000000000000000000000000000D949050880
:1001500065AD000879AD00088DAD0008ED380508E3
:1001600091A9000835B80008000000000000000058
:10017000000000000000000000000000000000007F
:1001800000000000ADBB05080000000000000000FA
:08019000ADBB0508ADBB05087D
:08019800B8B8050001000000E9
:1001A0001D02020006000000D03F0020D84C0020B5
:1001B0000000000000000000D44C002004000800F3
:1001C00080000000D8420020E44C00200000000025
:1001D00000000000E04C0020F701010006000000D4
:1001E00058430020684D0020000000006CE4060821
:1001F000644D00201C120100100000006843002024
:10020000744D00200000000081F00408704D0020B3
:10021000284001001600000078430020884D00208F
:100220000000000079720308844D0020FA010100EB
:100230000400000090430020A44D002000000000B6
:1002400079F00408A04D00200C0201000400000019
:1002500094430020AC4D002000000000A1F00408F1
:10026000A84D002018400100340000009C3F0020F1
:10027000B44D002000000000F90B0508B04D00202F
:10028000021001000C000000B0430020EC4D0020E3
:100290000000000074E40608E84D0020031201008D
:1002A0003D0000006C480020FC4D002000000000D4
:1002B00080E40608F84D0020010201000A00000059
:1002C000D44B0020404E00200000000069F00408DC
:1002D0003C4E002012300100100000007C3F002046
:1002E000504E002000000000BEE406084C4E0020E6
:1002F000FD170100AC000000E44B0020644E00201C
:100300000000000045170408604E00201310010093
:1003100004000000904C0020144F0020000000005A
:10032000D0E40608104F00203B400100020000000E
:10033000B84C00201C4F002000000000D4E4060848
:10034000184F00203D00010002000000C44C0020B6
:10035000244F002000000000D6E40608204F0020B3
:100360001420010006000000784100202C4F0020DE
:1003700000000000A9610308284F0020F6210100B9
:100380000C000000E8470020384F0020000000006B
:10039000D8E40608344F0020F5C1010074000000C5
:1003A0005C4B0020484F0020000000002529040875
:1003B000444F0020F841010006000000E443002003
:1003C000C04F002000000000E4E40608BC4F0020FD
:1003D0000202010003000000584B0020CC4F002017
:1003E000000000008DF10408C84F00200612030031
:1003F000120000009C430020D44F002000000000A9
:10040000EDFD0408D04F0020054001000800000069
:10041000D0310020EC61002000000000ECE4060870
:10042000E86100201302010004000000E031002018
:10043000F861002000000000F4E40608F4610020E8
:10044000081203000F00000088310020086200201D
:100450000000000019F0040804620020FD01010002
:1004600012000000344100201C6200200000000047
:100470001D930008186200200630010026000000CD
:10048000E43000203462002000000000B1F00408D5
:1004900030620020160215003F000000A43000204A
:1004A000606200200000000059F104085C62002036
:1004B0000D100100340000003C8C0020109C002036
:1004C0000000000015E9010858A100202F200100BC
:1004D000660000000CA00020A89B00200000000087
:1004E000F8E4060808A000201500100070000000C5
:1004F00024990020A49C00200000000000000000BF
:1005000074A000202A0008006000000094990020D8
:10051000449C0020000000006177030878A00020C0
:100520002C00040010000000749B0020B89E0020E6
:1005300000000000F56303087CA0002025201E00B9
:100540002C010000489A00208C9D00200000000033
:100550000000000080A000202B00120024000000FA
:10056000249A0020E49F0020000000000564030896
:1005700084A00020220201001C0100007C8D0020CC
:10058000C89E002000000000590C050888A000202B
:10059000031101000A000000708D002090A00020CF
:1005A000000000002DEA04088CA000200A90010041
:1005B00024000000188C0020A0A0002000000000F3
:1005C0008D7203089CA00020FE01010018000000AD
:1005D000588D0020C8A0002000000000E5EF0408AE
:1005E000C4A000202940140078000000E08C002006
:1005F000149D00200000000000000000E0A000208A
:100600000B3001001A000000C48C0020E8A000207C
:10061000000000005EE50608E4A000201E40010086
:100620004D000000748C002008A100200000000094
:1006300078E5060804A100200C700400800000008A
:10064000788B002060A100200000000069230208D0
:100650005CA10020012001000C000000F88B0020AC
:10066000E4A1002000000000C6E50608E0A100208B
:100670002700010004000000148C0020F4A10020D9
:1006800000000000D2E50608F0A1002023200100B0
:1006900010000000048C0020FCA1002000000000DD
:1006A00065720308F8A100200EB00400A803000042
:1006B000CC87002010A20020000000003D77030836
:1006C0000CA20020386001000600000018A60020DF
:1006D000A0BC002000000000D6E506089CBC00205D
:1006E0003C20010012000000E0A80020ACBC00206B
:1006F00000000000DCE50608A8BC002037700100FF
:100700001E000000B8A80020C4BC002000000000AB
:10071000EEE50608C0BC002016300100080000000D
:1007200040AC0020E8BC0020000000000CE60608F9
:10073000E4BC0020102001000300000044AA0020B7
:10074000F4BC00200000000014E60608F0BC002005
:100750001910010003000000E8A90020FCBC0020E3
:100760000000000018E60608F8BC00201A0201008C
:100770003C00000060BC002004BD00200000000020
:100780004D05050800BD00202802040004000000FB
:10079000DCA9002044BD0020000000002DF1040869
:1007A00040BD00202702040004000000D8A900205A
:1007B0004CBD00200000000025F1040848BD0020C9
:1007C0001A0001000E00000048B0002054BD0020B7
:1007D000000000001CE6060850BD00202062010059
:1007E0000C00000088A9002068BD00200000000067
:1007F0002AE6060864BD00200E0201000200000087
:10080000D4A9002078BD00200000000036E60608CC
:1008100074BD00200F0201000100000090C4002000
:1008200098C400200000000038E6060894C40020A8
:100830002A1201000800000088C40020A0C4002083
:10084000000000003AE606089CC400202342010094
:100850001800000018C30020ACC4002000000000F5
:1008600044E60608A8C400201F5001002C00000028
:100870000CBF0020C8C40020000000005CE6060891
:10088000C4C40020050201000400000070C600205E
:100890003CCB00200000000088E6060838CB002092
:1008A0002C22010008000000CCC5002064CB0020F1
:1008B000000000008CE6060860CB00202D0201003D
:1008C0000100000080C6002070CB00200000000066
:1008D000000000006CCB0020121201000400000098
:1008E0007CC6002078CB00200000000011F1040835
:1008F00074CB002029020100400000008CC50020BC
:1009000080CB002000000000000000007CCB002015
:10091000010101000400000060C60020C4CB0020DB
:100920000000000000000000C0CB0020000101001A
:100930000400000000C50020CCCB00200000000017
:1009400094E60608C8CB0020020101000300000065
:10095000ECC50020D4CB002000000000F5200208E8
:10096000D0CB00200300010001000000E4CC0020F7
:10097000E4E600200000000000000000E0E60020A7
:100980003400010010000000E8CC0020ECE600205C
:1009900000000000BD610308E8E600201B02010022
:1009A0001000000030FB002040000120000000008B
:1009B00035F104083C000120001201000A0000008B
:1009C000E4FA002054000120000000005DF004085B
:1009D00050000120FB01010001000000301E012039
:1009E0002C1E01200000000051F10408281E0120E7
:1009F000FC01010009000000441E0120381E0120F6
:100A00000000000049F10408341E01201102010019
:100A1000080000005C1E0120541E012000000000A0
:100A200019F10408501E01201F0206000C000000EE
:100A3000EC1B0120681E012000000000D105050804
:100A4000641E012010020100010000003039012065
:100A50002C3901200000000098E606082839012002
:100A60000902010001000000F0370120383901209F
:100A7000000000009AE6060834390120F90101005F
:100A800004000000E437012040390120000000008C
:080A90009CE606083C39012038
:100A980012010002000000408304205700020102F6
:100AA80003010000040309041A0300000000000009
:100AB800000000000000000000000000000000002E
:100AC80000000100D8000000000000000500000040
:100AD800060000000200000000000000E4050020FD
:100AE800FC6100200200000001000000858C000865
:100AF800E0050020000000000100000001000000E7
:100B0800658C0008DC0100200000000000000000E7
:100B180000000000000000000000000000000000CD
:100B280000000000010000000000000000000000BC
:100B380000000000000000000100000000000000AC
:100B4800000000000000000000000000010000009C
:100B58000000000005000000FFFFFFFF00600240EA
:100B680010600240000000000000000000000000CB
:100B7800000B000000000000000000000000000062
:100B880000600240286002400100000000000000F0
:100B980000000000060C000000000000000000003B
:100BA80000000000006002404060024002000000B7
:100BB8000000000000000000100D00000000000010
:100BC8000000000000000000006002405860024081
:100BD800030000000000000000000000160E0000E6
:100BE800000000000000000000000000006002405B
:100BF80070600240040000000000000000000000D7
:100C0800200F0000000000000000000000000000AD
:100C180000600240886002400500000000000000FB
:100C28000000000026100000000000000000000086
:100C38000000000000600240A060024006000000C2
:100C4800000000000000000030110000000000005B
:100C5800000000000000000000600240B860024090
:100C6800070000000000000000000000362F000010
:100C780000000000000000000000000000640240C6
:100C880010640240000000000000000000000000A6
:100C98000038000000000000000000000000000014
:100CA80000640240286402400100000000000000C7
:100CB80000000000063900000000000000000000ED
:100CC800000000000064024040640240020000008E
:100CD8000000000000000000103A000000000000C2
:100CE8000000000000000000006402405864024058
:100CF800030000000000000000000000163B000098
:100D08000000000000000000000000000064024035
:100D180070640240040000000000000000000000B1
:100D2800203C00000000000000000000000000005F
:100D380000640240886402400500000000000000D2
:100D48000000000026440000000000000000000031
:100D58000000000000640240A06402400600000099
:100D68000000000000000000304500000000000006
:100D7800000000000000000000640240B864024067
:100D880007000000000000000000000036460000D8
:100D9800000000000000000000000000C58D0008F1
:100DA800E58D0008FD8D0008018E0008AD9900084A
:100DB800058E0008098E000850F00508C5230508AF
:100DC8008DF30408A52405080000000000000000B9
:100DD8006D2105080522050800000000000000003C
:100DE80000000000CDF304080987000815870008F3
:100DF800F5960008CD96000821870008119700088D
:100E08002D9700080100000003000000000000000A
:100E1800050000001F0000001C0000001F0000006B
:100E28001E0000001F0000001E0000001F00000040
:100E38001F0000001E0000001F0000001E00000030
:100E48001F0000000068214C010000006917050818
:100E5800FDF20408811605080000000069F3040883
:100E6800152305085D190508A919050800000000E3
:100E7800000000005DF30408D9F30408FDF304083A
:100E8800594905083D490508754905089149050866
:100E9800AD490508A516050881F204087D14050862
:100EA80000000000CDF20408B1170508591805081C
:100EB800A51805080000000000000000F1F2040871
:100EC80001FF0000B4EF0508E8EF05081CF005086D
:100ED800FFFFFFFF080000000600000005000000FB
:100EE800C7000000060000000500000009F404081F
:100EF8000DF4040811F404081DF4040821F404088E
:100F080015F4040819F40408FFFF0000FFFFFFFFB1
:100F1800010000008C6006080000080205030300B9
:100F280000000000946006080100080205040300A0
:100F3800000000009C60060800000802050303008A
:100F480000000000A4600608010008020504030070
:100F58000000000094AC06080200FE010114030022
:100F68000000000064590608030014020003000092
:100F780000000000AC60060804001F020200060022
:100F880000000000B460060805001F020201060008
:100F98000000000000010101000000000000C8423C
:100FA800FFFFFFFFA8610000CDCCCC3D0000204131
:100FB80001010000FFFFFFFF010000007D000000AD
:100FC8000000803F0000000000000000000000005A
:100FD8000000803F0000000000000000000000004A
:100FE8000000803F0000000000000000000000003A
:100FF800FFFFFFFF01000000A00F0000B80B00007A
:1010080001000000000000000000000000000000D7
:1010180000000000000000000000000000000000C8
:1010280000000000F5A10408000000000000000016
:1010380019A30408000000000000000000000000E0
:101048000000000000000000000000000000000098
:101058000000000009A504080000000000000000CE
:101068000000000000000000000000000000000078
:101078000000000000000000000000000000000068
:1010880000000000B9A604080000000000000000ED
:1010980081A70408000000000000000049A9040816
:1010A800FC940608F4A6060800000000292002089F
:1010B800A086010004000000FC94060880A706082A
:1010C800000000008D700108E80300000400000023
:1010D80088A706080000000000000000A1D8020848
:1010E8007D000000FF000000205A060800000000F4
:1010F8000000000029DB02087D000000FF0000005E
:1011080024B506080000000000000000051B0308C5
:101118007D000000FF0000001C61060800000000C0
:101128000000000015750108E80300000300000036
:10113800105C060800000000000000002DAA03084B
:101148001027000003000000A86006080000000047
:10115800C9650308719601085F7600000500000064
:10116800F462060800000000000000003171010868
:10117800102700000200000090A7060800000000E9
:1011880000000000616C0108E80300000500000091
:101198009CA70608000000000000000001260208C5
:1011A800204E000003000000ACA706080000000065
:1011B8000000000051280208204E00000300000033
:1011C800BCA70608000000000000000081710108AB
:1011D800400D030003000000D89506080000000039
:1011E80000000000F5F201081027000002000000CE
:1011F800FC6206080000000000000000055F04080B
:101208001027000003000000CCA70608000000001B
:10121800000000004D7F01081027000003000000B7
:1012280084A40608000000000000000051540308D0
:101238001027000002000000D8A7060800000000E0
:101248000000000089770308102700000200000052
:10125800E0A70608000000000000000085790108EA
:10126800A8610000020000000C59060800000000F8
:10127800000000002D880108A08601000100000080
:10128800645806080000000000000000F56D010821
:101298001027000002000000285D0608000000007A
:1012A8000000000019C80108A00F0000020000009B
:1012B800346306080000000059720408C1DB040802
:1012C80085450100020000002458060800000000BF
:1012D8000000000039870408102700000200000001
:1012E80000A706080000000000000000993F04085D
:1012F80050C3000002000000E8A706080000000034
:101308000000000035F80408400D0300010000004B
:10131800F0A706080000000000000000DD530408E4
:1013280050C3000003000000FCA7060800000000EE
:1013380000000000C933020840420F00010000000D
:1013480008A8060800000000000000004DE9010898
:1013580050C300000100000014A8060800000000A7
:1013680000000000EDAF0408102700000200000094
:101378000DF201080000000000000000000000005D
:10138800FFFFFFFFE9E9010800000000000000007E
:1013980000000000010000000000000050CB002009
:1013A800080000000000000040CB002008000000FA
:1013B800FDE9010800000000000000000000000036
:1013C80001000000FFFFFF7F000000800000803F59
:1013D800FFFFFFFF0000FA430000FA437EFF7EFF95
:1013E800E2FFE2FF0000803F000000000000000074
:1013F8000000000000007A440000803F0000803FA9
:1014080000000000000000000000000000000000D4
:1014180000000000000000000000000000000000C4
:1014280000000000000000000000000000000000B4
:1014380000000000000000000000000000000000A4
:101448000000000000000000000000000000000094
:101458000000000000000000000000000000000084
:101468000000000000000000000000000000000074
:10147800A0E70020F4E7002068F0002076F00020C4
:1014880001F11F3FD6010000FF1FFF1F0000803F32
:10149800FF0000000000803F000000000000000086
:1014A8000000000000000000000000000000000034
:1014B8000000000000000000000000000400000020
:1014C8000000803F00000000000000000000000055
:1014D80000FF000000000000000000005111040897
:1014E8000000000000000000A02F06080100E00135
:1014F8007522040800000000000000004C4906089E
:10150800000000000000000000000000A8340608E9
:101518000000000000000000000000006035060820
:101528000000000000000000000000000C35060864
:101538000000000000000000551B0408FEF9002010
:10154800FF00000001000000FA0000000100000098
:1015580001000000214D0408000000000000000008
:101568000C34060881F704080000000000000000A1
:10157800803306082D480408000000000000000021
:10158800383306082D202D2D202D2D2D2D202D2DE5
:101598002D00000000000000000000000000000016
:1015A800000000010101000050F1002088136F17AE
:1015B8000100000052F1002088136F17000000009E
:1015C80054F1002088136F170100000056F1002025
:1015D80088136F17000000000111040800000000C4
:1015E80000000000A030060846FA002001000000B4
:1015F800F430060859F10020010000000031060807
:1016080000F2002002000000083106082911040831
:10161800000000000000000014310608000000006F
:10162800000000000000000068310608000000000B
:101638000000000000000000D83106084EF100202C
:101648000200000020320608DCFE0020E0150C171E
:1016580000000000C01200006A0001200000000025
:1016680000000000680001200000000000000000E9
:101678006600012000000000000000006400012056
:1016880000000000000000006200012000000000CF
:1016980000000000600001200000000000000000C1
:1016A8005C0D0020000000000000000058F1002040
:1016B80003000000103206080000000000000000CF
:1016C800000000002C3206086E000120E0150C17FF
:1016D800000000007000012002000000203206080F
:1016E8002D202D2D202D2D2D2D202D2D2D2D0000A3
:1016F80000000000000000000000000000000000E2
:10170800000000000000000000000000643206082D
:10171800720001209CFF2C0100000000B6FE002092
:10172800E0150C17000000001AFE0020020000005F
:10173800203206082D202D2D202D2D2D2D202D2D4C
:101748002D2D000000000000000000000000000037
:101758000000000000000000000000000000000081
:101768009C3206089DF00020051401009CF0002022
:101778000AFF01009BF0002000C801009AF0002039
:1017880000C8010099F0002000C8010098F000206E
:1017980000C8010097F0002000C8010096F0002062
:1017A80000C8010095F0002000C8010094F0002056
:1017B80000C80100A1090408E109040800000000AC
:1017C800A8350608B8F0002005320100B6F0002060
:1017D8004C04A40601000000B4F000207805D007EE
:1017E80001000000B2F000201A0478050100000092
:1017F800B0F00020010F0100AEF000201900F40144
:1018080001000000ACF000200500F4010100000018
:10181800AAF00020003C0100A8F000200000B80B4E
:1018280001000000A6F000200200FF0001000000F7
:10183800A4F000203200C40901000000A2F000203A
:101848000000640001000000A0F000200200000079
:1018580020FD05089EF000201400E80301000000A8
:10186800EEF0002000C80100EDF00020005001005B
:10187800ECF00020005A0100EAF00020020000000D
:1018880028F9050868B0060870B0060844FA002070
:101898000100C4090000000042FA00200100C40948
:1018A8000000000040FA00200100C4090000000008
:1018B8003EFA00200100C409000000003AFA0020A6
:1018C8000100C409000000003CFA00200100C4091E
:1018D8000000000038FA00200100C40900000000E0
:1018E80036FA00200100C409000000002FF1002092
:1018F80000C801002EF1002000C801002CF10020D2
:101908000000FFFF0A0000002AF100200100C800C3
:101918000100000028F1002032003075320000007C
:1019280026F10020E2FF14000500000024F1002049
:101938007EFF14000500000022F1002005002C01A4
:101948000500000020F10020055A050035F10020AF
:1019580000FF010033F10020020000008C0F00207E
:1019680031F10020040000006036060834F1002040
:1019780000FF010032F10020020000008C0F00205F
:1019880030F10020040000006036060810F2002044
:10199800FF7F01000CF2002000000000FFFFFFFFA6
:1019A8000100000008F2002000000000FFFFFFFF18
:1019B8000100000004F2002000000000FFFFFFFF0C
:1019C80001000000210A04087D0A04080000000044
:1019D800743606088EF00020EE02CA0801000000E6
:1019E8008DF0002000C80100640000008CF0002089
:1019F80001C80100640000008BF000200200000014
:101A080010FA05084CF100200000803E0500000097
:101A18004AF1002080C1803E0500000048F1002006
:101A28000083007D0500000046F1002080C1803E53
:101A38000500000044F1002000FF010042F10020F1
:101A48006400F4010100000040F100206400F4018A
:101A5800010000003EF100206400F40101000000D4
:101A68003CF1002004000000DCFC05083BF10020EC
:101A780002000000D0FC0508000000000000000083
:101A88000000000080370608000000000000000089
:101A980000000000B83706088AF000206300000044
:101AA80060FA050888F0002003000000F0370608F7
:101AB80089F0002004000000F0FC05081BF100205C
:101AC80003000000003806081AF100200300000097
:101AD800003806080EF10020000A01000CF1002071
:101AE8000000E803010000000AF100200000E803FC
:101AF8000100000008F10020000A010006F10020A2
:101B08000000E8030100000004F100200000E803E1
:101B180001000000FCF00020C800E80301000000FC
:101B280002F100201400FA000100000000F100207A
:101B38000100E80301000000FEF00020000701009A
:101B4800FAF000200000F40101000000F8F0002085
:101B58000000F40101000000F6F000200000F4018C
:101B680001000000F4F000200000F4010100000072
:101B7800F2F000200000E80301000000F0F000206F
:101B88000000E80301000000D7F0002019640100FC
:101B9800D6F00020020000007CF90508E8F00020DB
:101BA80000640100CBF0002000640100CAF00020AE
:101BB80000640100D2F00020006401000A00000067
:101BC800D1F00020006401000A000000D0F00020DD
:101BD800006401000A000000D5F0002000FF0100A9
:101BE8000A000000D4F0002000FF01000A000000F5
:101BF800D3F0002000FF01000A000000CFF0002011
:101C080001FF01000A000000CEF0002001FF0100E2
:101C18000A000000CDF0002001FF01000A000000CA
:101C280018F100200000F4010100000016F1002066
:101C38000000E8030100000014F100200000E803A0
:101C48000100000012F100200000E803010000007C
:101C580010F100200000E8030100000051F9002005
:101C6800009601004EF90020E803D0070A000000A2
:101C78004CF90020006401004AF90020E803D0076D
:101C88000A00000048F90020006401000A00000072
:101C980047F90020009601003EF9002000C8010025
:101CA8003DF90020006401003CF9002000640100B7
:101CB8003BF90020006401003AF9002000640100AB
:101CC80039F90020FF08010038F9002001640100FB
:101CD800910B0408D50B0408000000001038060812
:101CE80041F900200132010040F900200100000004
:101CF80050F905083FF900200400000058F90508CC
:101D080037F900200096010036F900200064010030
:101D180035F9002000FA01006400000034F90020C1
:101D28000AFA010033F900200AC8010032F900203C
:101D38000064010031F900200064010030F900203E
:101D48000A5A01002FF9002000C801002EF90020CE
:101D580000C8010044F900200032010046F90020C3
:101D68000014010045F90020005F010043F900203C
:101D780004000000D8F8050842F9002000640100BA
:101D88000A000000C5F000200AC805000A0000008B
:101D9800C4F0002001000000C8FD0508C7F00020BD
:101DA8000AC805000A000000C6F000200100000073
:101DB800C8FD0508BCF0002000C805000A000000A6
:101DC800C3F0002000C805000A000000BDF0002094
:101DD80000C805000A000000BEF0002000C8050089
:101DE8000A000000C1F0002000C805000A00000039
:101DF800C2F0002000C805000A000000C0F0002062
:101E080000C805000A000000BFF0002000C8050057
:101E18000A000000BBF0002002000000A4F805083A
:101E28002CF900200000D0070100000026F900204E
:101E380000C8010025F9002000C8010024F900208D
:101E480000C801002AF900200000D00701000000A6
:101E580023F9002000C8010022F9002000C8010071
:101E680021F9002000C8010028F900200000D0074F
:101E78000100000020F9002000C801001FF900201F
:101E880000C801001EF9002000C80100D4BC0608E3
:101E980000000000000020000120E0BC0608070840
:101EA800000000008C150020E8BC060807080000A8
:101EB800000084150020F0BC060807080000000098
:101EC8007C150020F8BC0608080800000000701502
:101ED800002000BD06080708000000006815002063
:101EE80008BD06080708000000006015002010BDA6
:101EF80006080708000000005815002018BD06084D
:101F08000808000000004C15002020BD0608071036
:101F1800000000004415002028BD06080710000036
:101F280000003C15002030BD060807100000000026
:101F38003415002038BD06080810000000002815D8
:101F4800002000AE060801000000000000000000AC
:101F58000000000010000000000000000000000069
:101F6800D50D0408E50D04089123040880380608F7
:101F78001FF10020006401001EF10020005A01003A
:101F88001DF1002000C80100000000000000000052
:101F98007D1E04081C3906083AF1002003000000E1
:101FA80094F8050839F100200003010038F10020F9
:101FB80000030100690E0408BD0E040800000000BB
:101FC80064390608110F0408510F040800000000C6
:101FD8000C3A06085D220408B56E040800000000EB
:101FE8008C3A060836F100200103010005120408A6
:101FF8002D12040800000000383E060841090408B4
:102008006109040800000000B83E0608D10F040862
:102018003110040800000000283F0608791C040855
:102028000709040800000000E03F0608C10D040885
:10203800000000000000000088400608810C040829
:10204800ED0C040800000000EC400608190C040818
:102058004D0C040800000000A4410608E5700408BF
:10206800610B040800000000244206081CF9002047
:102078000300000010000120510D04088D0D040814
:10208800000000001443060829710408AD20040864
:102098000000000084430608D90A0408951F0408B4
:1020A800000000007C45060889700408551F0408D4
:1020B80000000000941500201DF900200300000016
:1020C800CCFF0020010E0408350E040800000000B3
:1020D80088460608211B04080000000000000000D4
:1020E800EC460608990F0408D16E040800000000A9
:1020F80088470608000000000000000000000000FB
:1021080024480608FF6F0408211F04080000000087
:1021180094480608FCFFFFFF0101FD003808012074
:10212800000000003008012000000000010000004D
:10213800AA55070100001401FF000000090243002E
:10214800020100C032090400000102020100052456
:1021580000100105240100010424020205240600E0
:1021680001070582030800FF09040100020A0000B4
:102178000007050102400000070581024000000039
:1021880009026400030100C03209040000010300D1
:102198000000092111010001223600070583030907
:1021A800000A080B010202020100090401000102F1
:1021B8000201000524001001052401000204240284
:1021C800020524060102070582030800FF0904022C
:1021D80000020A000000070501024000000705810F
:1021E8000240000009022000010104C03209040075
:1021F8000002080650050705810240000007050196
:102208000240000012010002EF020140830456322E
:102218000002010203010000120100020202004054
:10222800830440570002010203010000040309046B
:102238000101AA5505010000080101010501090570
:10224800A101A10005010930093109320933093515
:102258000934093609371581257F750895088102E3
:10226800050919012908150025019508750181023C
:10227800C0C0000009022200010100E03209040088
:1022880000010301020009211101000122360007A3
:1022980005830309000AAA550902000000AA55038C
:1022A800009F000001000000AA550B010000AA557C
:1022B80005010000FFFFFF00F4010000000000001E
:1022C800000000000000000001000000D9EF040831
:1022D80000000000000000000000000001000000F5
:1022E800000000004D120508ED120508DD0C050878
:1022F80051F2040895F1040835F204081DF20408A7
:1023080061F2040871F204080000000000000000F7
:102318001C1A0020000000000000000068000000F7
:10232800D0000000000000000000000000000000D5
:102338000000000000000000000000000000000095
:102348000000000000000000000000000000000085
:102358000000000000000000000000000000000075
:10800000074BD0F8E4105B68D0F8F0205B1A9A4276
:10801000B8BFC0F8F030012380F81C310020704751
:10802000001000E0B04B00EB80022DE9F04103EBC3
:10803000C20553F832205268918ACC074FEA800C6F
:1080400076D4CCB2A70744D5BFF35F8F297F01292F
:10805000CCB200F0E6804100148BBFF35F8F0CEBD5
:10806000000403EBC404257F022D00F006810CEB15
:10807000000403EBC404257F032D08D1A47F34B191
:108080000C181C4494F87850002D40F05B819488C3
:10809000A4B244F4806494800C181C4494F97AE0EF
:1080A0000CEB000403EBC404247F013474450ED1AF
:1080B00001441944002481F8784091F8791000298E
:1080C00040F0D480604403EBC00000234376BDE859
:1080D000F081660765D400EB40071F4414F04004AC
:1080E0008EB297F97AE04FEA400100F0DA80168A02
:1080F0006C6AF6B204F80E605FFA8EF6741C64B215
:1081000095F81C8087F87A40E51CA845A64600F043
:1081100045810CEB000503EBC5052D7FAC42BFD1BB
:108120000C1802361C4476B284F87A60B646B7E77B
:10813000118821F400610904090C1180118889B2A9
:1081400041F48061118000EB40041C44AE7F0021AB
:1081500084F87A104100002E52D094F87840002C18
:108160004BD00CEB000403EBC4040144247F1944FE
:108170000125022C81F8785004D1118889B241F48C
:10818000006111800CEB000103EBC101897E41F01D
:10819000010111820CEB000203EBC2031B7FBDE85F
:1081A000F08100EB40061E44AC7F012186F8791077
:1081B00000FA01F1002C00F0908096F87840002C35
:1081C00040F094800CEB000403EBC404647F002CAB
:1081D00000F0BB800D181D44148895F87AE0A4B215
:1081E0000EF1010E44F400744FFA8EFE148085F8EF
:1081F0007AE01488E705FCD452E7EC7EFF2CB0D07F
:108200000CEB000403EBC404A57E05F0FE0515820B
:10821000E27EFF2ABED001441944FF2281F87A2071
:10822000B8E7A97F00293FF416AF00EB40051D44D5
:10823000410095F87860002E3FF40EAF168826F4C2
:1082400080663604360C1680BFF35F8F85F8794060
:10825000148B148895F97AE0A4B244F40074148065
:108260009488A4B244F48064948019E7918821F43E
:1082700040710904090C918024E7A47F002C3FF48D
:10828000F6AE0C181C4494F87850002D3FF4EFAE75
:1082900094F97AE0148824F480642404240C148073
:1082A00014E036067FF5FCAEBEF1FF3F7DD02C6AB0
:1082B00014F80E40E4B214822C7F0EF1010E4FFA36
:1082C0008EFE744587F87AE07FF4EAAE948824F451
:1082D00080642404240C9480E2E696F87840002C14
:1082E0003FF470AF76E700BF681A00202C7F6F6AFA
:1082F000022C148836D924F480642404240C1480BD
:10830000B2F810E096F97A405FFA8EFE07F804E0C2
:10831000D5F824E01588ADB245F400751580E4B2B7
:10832000178A651C6DB2FFB20EF8057004F1020EDB
:108330009488A4B24FFA8EFE44F4806486F87AE002
:10834000948056E794F97AE0C0E71488A4B244F424
:10835000807414800C181C44012594F97AE084F888
:10836000785046E7A4B244F400741480B2F810E0E8
:1083700096F97A405FFA8EFE07F804E0E4B2D5F889
:1083800024E0178A651C6DB2FFB20EF8057004F187
:10839000030E4FFA8EFE86F87AE02AE7958825F4D8
:1083A00080652D042D0C9580B3E6E97E87F87A4030
:1083B000C9B21182A97F19B9297F00297FF4EAAED9
:1083C000918821F480610904090C9180E2E600BFE4
:1083D00010B404698269E468416814600023402491
:1083E000C2E90234446993630C31C2E90433C2E93F
:1083F0000633C2E90833C2E90A33C2E90C335160DB
:1084000094B1C269E46893634FF48030C2E90041DB
:10841000C2E90233C2E90433C2E90633C2E90833D0
:10842000C2E90A03C2E90C335DF8044B704700BF90
:10843000D0E9001300221A60037D1F2B07D9203BCF
:10844000202202FA03F343F01803CB607047202286
:1084500002FA03F343F018038B6070471B4B01686B
:1084600003F57D7C02E02C3363452CD01A688A42E8
:10847000F9D170B593F804E0427996450BD02C33CE
:10848000634505D01A688A42F4D02C336345F9D18C
:108490004FF0FF3070BD9E468468DEF80C50A54258
:1084A0004FF0000208D00132032A0EF10C0EE6D084
:1084B000DEF80C50A542F6D1DEF81050C668B54281
:1084C000F1D150B270BD4FF0FF30704758D8050859
:1084D000002A4FEA014C30B503460ABFE6468E46F5
:1084E0008C4600F1C005002419689A6841EA0C0125
:1084F00042EA0E029A60C3E900140C33AB42F3D196
:10850000D0F8C030C0F8C44043EA0E03C0F8C03011
:10851000C0F8C84030BD00BF83691969B3F80CC00A
:108520000A6830B49C6822F0010224680A60A289BB
:1085300092B222EA0C02A281027D00681F2A06D9AB
:108540004568203A082494402C4246D0FEE705684E
:10855000082494402C42F9D1202404FA02F28260CB
:10856000274A92F88120002A35D01A7E012A39D074
:10857000D3F8F4200132C3F8F420EFF31181502234
:1085800082F3128858685C6C026822EA04029C6CD0
:108590002243C9B2026081F31188D3E90C401A6901
:1085A00099681D6C096814605061D3E90E405460ED
:1085B00090600024B3F8A800D5604C62C8621068CF
:1085C0000124204310601C7683F8F1408A899B893E
:1085D00013439BB28B8130BC7047202404FA02F213
:1085E000C260BDE7002283F8F120D3F8F8000A68E2
:1085F000013022F00102C3F8F8000A60EBE700BF87
:10860000681A002010B40D4CD4F88430002B12DD11
:10861000002004F1880C0146DCF8A03003F1C00210
:1086200059600C339342FBD1D4F88430013083423B
:108630000CF5807CF0DC5DF8044B7047681A002074
:10864000704700BF024B03EB401393F8A50470473B
:10865000681A00204368B0F8502010B41A83EFF372
:108660001182502383F312884168446C0B6823EA1B
:108670000403C46C2343D2B20B6082F31188D0E9A7
:1086800007418268036912681C605961D0E9094199
:108690005C60C46A9960B0F86010DC600023D1624D
:1086A0005DF8044B037670470C2911D8DFE801F020
:1086B0002310101019101010111010100700838BC8
:1086C00023F400631B041B0C43EA02239BB2838345
:1086D0007047838B23F008031B041B0C1A4382830F
:1086E0007047038B23F400631B041B0C43EA022333
:1086F0009BB203837047038B23F008031B041B0CFE
:108700001A430283704700BF122301480B80704751
:1087100098010020042301480B807047AC01002021
:108720001C48D0F8103AD0F8182A10B59B184FF012
:108730001A040C8001D1184810BD174AD0F8140A49
:1087400002F1100411464FF0000E4FEA137CB3F112
:10875000204F34BF0CF1300C0CF1370C81F802C003
:1087600081F803E002318C424FEA0313EDD102F1AC
:1087700008040021030FB0F1204F34BF30333733EA
:108780009374D174023294424FEA0010F2D102483D
:1087900010BD00BF0070FF1FB0010020D0E909200C
:1087A000131A58425841704790F84F3830B53BB9CA
:1087B00090F84D1890F84E380124DAB2914200D862
:1087C00030BDB0F8565804FA03F22A43A0F85628F0
:1087D0000133F2E70379024613F0010006D0D2E933
:1087E0000731D2685B1A013A03EA0200704710B5FC
:1087F000037913F0010304460ED0FFF7EBFF0346A5
:1088000050B1226A6369E1689B5C0132B2FBF1F00E
:1088100001FB1022DBB22262184610BD03799B07D0
:108820000AD5436A8269D154436A02690133B3FBB2
:10883000F2F102FB113343627047704701717047D8
:108840000379014613F0020007D00B69D1E9092131
:10885000013B521A1A40D2B2981A704782B01D4B8F
:108860001D49002201920193019B04330193019B56
:108870001A688B6803F00C03042B02D0082B05D078
:10888000164A174BC3F8882502B0704748684B68F2
:10889000400203F03F0314D44A681049B1FBF3F3DC
:1088A000C2F3881203FB02F20B4B5B68C3F3014374
:1088B00001335B00B2FBF3F2094BC3F8882502B029
:1088C00070474968B2FBF3F2C1F3881303FB02F26D
:1088D000EAE700BF50280040003802400024F400BE
:1088E000681A00202DE9F04F4A484B494B4B4C4C3D
:1088F0004FF0010A4FF002094FF004080827102634
:1089000020254FF0400E4FF0800C30F8022B12F073
:10891000010F03D01960A3F804A0083312F0020F6E
:1089200003D01960A3F80490083312F0040F03D0A9
:108930001960A3F80480083312F0080F02D0196000
:108940009F80083312F0100F02D019609E80083308
:1089500012F0200F02D019609D80083312F0400FF2
:1089600003D01960A3F804E0083312F0800F03D09D
:108970001960A3F804C0083312F4807F05D04FF4C7
:10898000807B1960A3F804B0083312F4007F05D08F
:108990004FF4007B1960A3F804B0083312F4806F21
:1089A00005D04FF4806B1960A3F804B0083312F4BB
:1089B000006F05D04FF4006B1960A3F804B00833C2
:1089C00012F4805F05D04FF4805B1960A3F804B007
:1089D000083312F4005F05D04FF4005B1960A3F870
:1089E00004B0083312F4804F05D04FF4804B196067
:1089F000A3F804B00833D20B04D04FF4004219603E
:108A00009A80083301F58061A1427FF47EAFBDE812
:108A1000F08F00BF4CDC050800000240F41F00206E
:108A20000014024010B584464FEA810E102312F460
:108A3000004F14BF0E2407245200013BCCF8004025
:108A400092B2F444F3D100EB81128C01035142F84D
:108A50002130122010BD00BF10B584464FEA810EB0
:108A60000424130B03EB430318331201013CCCF82D
:108A7000003092B2F444F4D100EB01130A018450A7
:108A800043F82140062010BD704700BF704700BF6B
:108A9000034B00EB400003EBC00393F81D08704745
:108AA000681A0020064B93F8CC28824283BF00EB63
:108AB000400003EBC003D3F820080020704700BF3C
:108AC000681A00201D4B93F8CD28AAB3D3F80C18D0
:108AD00009B100200860012A2ED0D3F8241809B16A
:108AE00000200860022A27D0D3F83C1809B10020E2
:108AF0000860032A20D0D3F8541809B10020086078
:108B0000042A19D0D3F86C1809B100200860052A8E
:108B100012D0D3F8841809B100200860062A0BD0BF
:108B2000D3F89C1809B100200860072A04D0D3F8B4
:108B3000B4380BB100221A60704700BF681A0020D9
:108B40001D4B93F8CD28AAB3D3F80C1809B1002017
:108B50000860012A2ED0D3F8241809B1002008603B
:108B6000022A27D0D3F83C1809B100200860032A54
:108B700020D0D3F8541809B100200860042A19D075
:108B8000D3F86C1809B100200860052A12D0D3F878
:108B9000841809B100200860062A0BD0D3F89C186D
:108BA00009B100200860072A04D0D3F8B4380BB10B
:108BB00000221A60704700BF681A002000EE100AF9
:108BC000B8EE400A704700BFBCEEC00A10EE103A83
:108BD00098B27047072809D8054B8C2202FB003356
:108BE000B3F8D008B0FA80F0400970470020704711
:108BF000681A0020072806D8034B8C2202FB00339A
:108C0000012283F8D2287047681A0020072808D864
:108C1000044B03EB401393F8A42412B1012283F810
:108C20008A247047681A0020072808D8054B03EBF0
:108C30004013B3F88804B0FA80F040097047002070
:108C4000704700BF681A0020054B93F8CC28824279
:108C500086BF03EB4013D3F894040020704700BF95
:108C6000681A0020012343770020704708B50346A7
:108C70008269006BD96A02449A6101B18847002079
:108C800008BD00BF436A1B681B6A5B685B780246CD
:108C900013F0010008BF5077704700BFC2628161C6
:108CA000704700BF704700BF043070470D4B93F80A
:108CB000342DD3F8301D0244D2B283F8342D93F80A
:108CC000342D01441206C3F8301D05D593F8342D18
:108CD00082F0800283F8342D034B012283F8322086
:108CE000704700BF681A0020980100202DE9F04766
:108CF000154FD7F8385DED0A20D00026B14607F5AC
:108D000057687419D7F83C3D1048D3F828A0C7F825
:108D1000689D04EBD474641010234246E102D047EE
:108D20000F280BDD0A4B03F1100153F8042B01321D
:108D300007D18B42F9D12546B542E2DCE802BDE815
:108D4000F087661CF8E700BF681A0020A4270020FF
:108D5000D82700201A4BD3F8801DD3F8842D8A1A07
:108D6000322A05DCD3F8982D8A1A002A0FDC7047C6
:108D700093F8882DD3F88C1D02F0010219B1086810
:108D80008988B2B901830022C3F8982D7047D3F8BF
:108D90008C2D82B11068928810B44469323122421D
:108DA00018BF42835DF8044B08BF0283C3F8981DC7
:108DB00070474183E7E73231C3F8981D704700BF21
:108DC000681A0020064AD2F88C3D3BB192F8881D03
:108DD0009A881B68C90754BF1A835A8300207047BA
:108DE000681A00204FF40070034B1060D3F8A83DC0
:108DF0000B600020704700BF681A002000207047F9
:108E000001207047012070470020704730B585B0C1
:108E100068464BF0EBF81048104AD0F8FC10009B65
:108E20000F4D41F08071C0F8FC10002400F1C840E3
:108E3000C2F8B05FA0F5650054601168094CA0F657
:108E40007D60A0FB030341F001019B0CC4F8D83DF9
:108E5000116005B030BD00BF00ED00E0001000E083
:108E600055CEACC5681A00202DE9F0411D4CDFF845
:108E70007C801D4F82B004F52075012602E0083485
:108E8000A54224D094F90630002BF8D1206800F1D7
:108E90003F4303F57E0308EB932393F800345A090C
:108EA000032A03F01F0306FA03F317D0042A11D094
:108EB000022A02D17A6C13437B640023A1881A46EC
:108EC000CDE90036083450F08FFEA542DAD102B069
:108ED000BDE8F0813A6B13433B63EEE73A6C134312
:108EE0003B64EAE7F41F00200038024058D8050828
:108EF000164AD0F8E0305268D0F8D81010B50446C1
:108F000073B1501A83420BDC94F8D030C4F8D820E7
:108F1000012B10D0D4F8D4300133C4F8D43010BDB4
:108F2000D4F8E430C4F8D8200B44C4F8DC3094F80A
:108F3000D030012BEED104F1E801201D49F084FF6F
:108F4000D4F8D4300133C4F8D43010BD001000E0A0
:108F5000F0B5224C224A234B95B0054604F13C0063
:108F6000CDE90002049304F140000023CDE905039C
:108F7000CDE90E331C4A09920B9304F1340210938D
:108F8000139311936B6A2F7F0A92186801230222B0
:108F90008DF80C3007938DF820308DF834308DF833
:108FA00048303B1D02920E460C9351F03BF997B1AD
:108FB000330E84F835303634320C330A2270637045
:108FC000A670686A694649F03FFF6B6A186851F0FD
:108FD00029F915B0F0BD3534EEE700BF9801002047
:108FE00044280020858C0008658C000810B50446D4
:108FF00094B050220649684654F0AEFA606A694659
:1090000049F022FF636A186851F00CF914B010BDE2
:1090100060DC05082DE9F0410446406A00681E4600
:109020000F46904651F0FEF8237FA069002B3DD0FB
:10903000274D030E85F84530052205F1460398704B
:10904000EA67020C000A58701A703B68C5F888304D
:109050000020D8F80030C5F89030012E2363C5F801
:10906000A00028D0022E1FD1D8F80420C5F89800FF
:10907000796885F89400C5F89C1013441549C5F823
:10908000A4200120236385F8A800C5F8AC10124B7A
:10909000627F606AA3F11401002A08BF194649F0F3
:1090A000D3FEE36A7BB1206BBDE8F0810B4B042259
:1090B000A3F14505C3E7074B85F89460C5E9263061
:1090C000C5F8A400E3E7636A186851F0ABF8EAE773
:1090D000980100206D8C0008F8010020DD010020BF
:1090E00000B583B081610192049A0093C2620123AA
:1090F0006A4601A9FFF78EFF03B05DF804FB00BFCD
:10910000F0B5826992F8DC30012B8BB0054627D090
:10911000023B012B2FD892F84C31D2F89C20174CEF
:1091200063F07F0313708669D6F8A0305F1C0FCC04
:10913000EC46ACE80F00D6F89C30CDE900370FCCF8
:10914000ACE80F0094E803008CE80300694606F1E0
:10915000100049F079FEAA6911690B6A002BFCD155
:10916000D2F8A0305A8852BAEA819A8852BA2A8232
:10917000DB885BBA6B8201200BB0F0BDB0DC050868
:10918000F0B590F8DC30D0F8A060012B8BB004462D
:109190004BD034D9023B012B2ED890F84D31D0F86A
:1091A0009C20454D63F07F031370D0F8A0305F1C06
:1091B0000FCDEC46ACE80F00D4F89C30CDE9003779
:1091C0000FCDACE80F0095E803008CE8030069467A
:1091D00004F1100049F038FE2269136A002BFCD11B
:1091E00073885BBAA4F8D030B3885BBAA4F8D230E5
:1091F000F3885BBAA4F8D43001200BB0F0BDD0F8EE
:109200009C304FF0FF321A605A609A60DA60D0F8F2
:10921000E0300522B3F57A7FC0F8F0201FD8032391
:1092200080F8DC3001200BB0F0BD90F84C2190F8B4
:109230004D319B1A5B100133DBB206EB430236F86B
:1092400013305BBAA0F8D03053885BBAA0F8D230A4
:1092500093885BBAA0F8D43001200BB0F0BD03694D
:109260001A7B2AB35B691BB390F8983003B390F86C
:109270004C31D0F89C20C4F8A40063F07F03137035
:1092800090F84C1190F84D31D0F8A0200B48C4F85C
:1092900004015B1A07330121C4F8FC30D4F89C3078
:1092A00084F800110A44C4E93D3284F8DC10A3E7D5
:1092B000022384F8DC309FE7B0DC05080180000859
:1092C0002DE9F0411348144D4FF4DC72002154F0A5
:1092D000BFF84FF00008A5F5906705F2746440F2FE
:1092E0009D1655F82810002354F8332091420BD0D6
:1092F00001330A2BF8D1002008F107084EF0E4FDF5
:10930000B045EED1BDE8F08107EBC30393F8F80A4E
:10931000F2E700BF48280020D8DC050870B50B4CE8
:1093200005460426013E00D170BD94F9000015F0F9
:10933000A5FE031E08DBEA1861789171A178E95453
:10934000052BDCBFE37813730434EBE79CE30508DB
:1093500010B5274C14F8A02C14F89F3C9A4242D127
:1093600014F89E0C00B3234A14F89D4C02F698732F
:1093700000EB4000D2F8982F03EBC000B4B140F2EC
:109380000D3C00E01A6899689C894C600C6844F0B8
:1093900001040C60A2F848C09189183389B241F4E5
:1093A000807183429181EDD110BD1A68118821F03E
:1093B000800109041833090C118033F8141CD162A0
:1093C000118889B241F0800111805462B2F80CC05A
:1093D00033F8041C41EA0C0189B28342918123F8DD
:1093E000044CE2D110BD51F0ADFC0028B8D110BD45
:1093F000602B0020681A00202DE9F041DFF8B080D2
:1094000008EB401797F8A4340BB9BDE8F081044687
:109410000D4646010FF038FDB0BB2348464400EB33
:109420004410A6F888540FF043FC98F88130D6F821
:10943000A024D6F88C1493B1D2F8A03001248C402B
:1094400003F1C001420010F4004F90B202D15A68FB
:1094500022435A600C339942F4D1BDE8F081D2F82E
:10946000A030012401F11002944003F1C001420038
:1094700010F4004F90B202D15A6822435A600C3364
:109480008B42F4D1BDE8F081084B13F89F2C02EB1E
:10949000420203EBC203234413F88F5C002DBCD0BF
:1094A000012387F88A34B8E7F01E0020602B0020E3
:1094B000681A00202DE9F0412B4F8C2505FB007523
:1094C00095F8DF380BB9BDE8F08104460E460FF081
:1094D000DBFCDFF89C8038BB8C2505FB047523483A
:1094E000A5F8D06804EB8404C4EBC40400EB84004A
:1094F0000FF0DEFB18F89D1C58F83C3C024611BBEF
:109500000121D5F858099847D5F85419B5F8DC4821
:109510008A8AD5F8503922438A8258601A6842F004
:1095200001021A60BDE8F08118F89F3C03EB430389
:1095300008EBC303234413F88F6C002ECCD0012317
:1095400085F8D238C8E7D5F8D818D5F8540949793C
:10955000006901F0FC01084404219847D5F854390A
:1095600080009881BDE8F081681A0020382300202F
:10957000602B00209EE700BF10B5044653F0E8F9C9
:1095800081B22046BDE8104036E700BF10B5044662
:1095900053F0DEF981B22046BDE810408AE700BFF3
:1095A00038B50B4D00EB400005F60C0303EBC00390
:1095B00093ED027AD3ED037AE7EE007AC4002544F6
:1095C000B0EE670A53F0C4F9D5F80C38186038BD0E
:1095D000681A0020F8B50C4B1D685A691540054003
:1095E0005D617DB1094F0126B5FA85F4C4F11F0410
:1095F00007EB840306FA04F453F8380C0368984721
:10960000A543F1D1F8BD00BF003C0140602B002014
:109610002DE9F843038AB0F80C801FFA88F818EA9D
:10962000030829D005460E464FF00047B8FA88F3E4
:1096300027FA03F2D24391B21B3B298208EA0208BF
:10964000042B16D8DFE803F0352C231A0300B36A85
:10965000002B37D003F1FF3900231FFA89F9B362D9
:10966000746A34B123682046494698476468002CE0
:10967000F8D1B8F1000FD9D1BDE8F8837068696BF3
:10968000036889B29847B8F1000FCFD1F4E7B0680A
:10969000A96B036889B29847B8F1000FC6D1EBE710
:1096A000F068E96B036889B29847B8F1000FBDD143
:1096B000E2E73069296C036889B29847B8F1000F76
:1096C000B4D1D9E7EB6A1FFA83F9C9E70A4608B5AE
:1096D000054920B905484BF00BF9034808BD04487B
:1096E0004BF006F9004808BD682B0020F052060830
:1096F0001853060810B5044C04480A4621464BF09E
:10970000F7F8204610BD00BF682B00204053060824
:1097100010B5044C04480A4621464BF0E9F82046AF
:1097200010BD00BF682B00205453060810B5044C30
:1097300004480A4621464BF0DBF8204610BD00BF26
:10974000682B002060530608F8B5A0F6680423795A
:10975000DB0725D5657994F84C3805F001073D46BF
:10976000FBB1D4F848341A68D36A5B08536294F8A2
:10977000503823B1B4F85A380133A4F85A38606C21
:1097800085F001014EF08EF8012384F84F38002354
:1097900084F84D3884F84E38A4F8563884F84C389C
:1097A000F8BD94F84F68012E04BF94F84D3884F842
:1097B0004E382046FEF7F8FF4EB9012384F84F38A3
:1097C00087EA0301606CBDE8F8404EF06BB80023F7
:1097D00084F84F383946F5E710B58469BCB1206884
:1097E000036A1B7B33B951F089FD2046BDE8104068
:1097F00049F01EBDA368002BF5D01A689B8813831F
:1098000051F07CFD2046BDE8104049F011BD10BD6F
:1098100038B5846904B938BD2568284651F06EFD15
:109820002B6A1B7B23B92046BDE8384049F000BDB8
:10983000A368002BF7D01A689B8813832046BDE8E5
:10984000384049F0F5BC00BF38B590F82830012BFE
:10985000044606D0407F08B9012038BD0023637755
:1098600038BD406A03681A7B92B9637F002BF3D03E
:109870000A4D0B49022305F5847249F015FB95F852
:109880000931D84303F0010300F001006377E7E7F3
:109890001B6A002BE9D0002038BD00BF602B0020E0
:1098A0005C02002010B504462046FFF7CDFF0028DB
:1098B000FAD0012010BD00BF2DE9F843DDF820806B
:1098C0000F4615460021202204461E4653F0C0FDD7
:1098D000B8F1000F0CD0D8F80030E3811B0C2382C4
:1098E000D8F80430B8F80A20E3821B0C6282238384
:1098F000384652F0ADF8EB0619D4431EB8B107EB69
:10990000000C01E0013B12D31CF801EDBEF12E0F5B
:10991000F8D1C01A421E032AA8BF0322082B03F164
:109920000109A8BF08239046B9441A4606E0082852
:109930000246B946A8BF08224FF000084FF0203376
:10994000394623606360204653F006FE04F10800A8
:10995000154B238142464946837053F0FDFD611E3D
:10996000E21D11F801CFACF16103192B9CBFACF1E2
:10997000200C81F800C09142F3D104F10A0011F8E3
:10998000013FA3F16102192A9CBF203B0B70814269
:10999000F5D118232373330CA382E572099B6683E8
:1099A000E361BDE8F88300BF202020002DE9F04FDF
:1099B000DFF84CB4DBF8800D85B0CBF8840D002BBC
:1099C00060D013440C46174601F5FE7A99461FE015
:1099D000002F64D0DBF8B43DBB4200F0C680DBF85A
:1099E000B03DBB4200F0F880DBF8B83DDBF8BC1DB1
:1099F000BB424BD8B94200F27081791A20464DF033
:109A0000C3FC01374F4504F500740AF5007A39D0DC
:109A1000DBF8C03DBB42DBD8DBF8D05DFB1A296B1D
:109A2000DA0802328A4203F0070602D3AB6B9A428D
:109A30000BD92946104602924DF076FC029A054653
:109A4000002800F06A81CBF8D00D2B79002B40F074
:109A50001E81D5F82880B8F1000F00F057812B6BDC
:109A6000D21AEB6806EBC20203EB422220462B46D9
:109A70004FF400710137C0474F4504F500740AF5F3
:109A8000007AC5D1002005B0BDE8F08FB942B4D945
:109A90004FF400720021204653F0DAFCB1E74FF496
:109AA00000723946204653F0D3FC802384F8BE313F
:109AB0000C2384F8C231DBF8B01DC54ADBF8A83DA1
:109AC000C4F8C6119142C4F8CA3100F30B81C14AEF
:109AD000C14D82FB010285FB01050A44C817C0EB9A
:109AE0006212C0EB2530BD4D84F8C10185FB0265D3
:109AF000C2EB82168010891B013120F03F00154413
:109B00000843D117C1EBE5110A4484F8BF21B04ADC
:109B100084F8C001013B934200F3F080AD4AAE48A7
:109B200082FB031280FB03101A44D917C1EB6212A7
:109B3000C1EB2031A94884F8C51180FB0250C2EB6B
:109B4000821589105B1B013321F03F01104419433A
:109B5000D317C3EBE0131A4484F8C41184F8C3216B
:109B60004AF65523A4F8FE314BE74FF0FF3384F853
:109B7000EC3184F8ED3184F8EE3184F8EF31522382
:109B8000237063706123A37084F8E7314123E3708D
:109B900084F8E6317223002584F8E43184F8E53155
:109BA000DBF8C83DC4F8E8314FF4F0722946201DB7
:109BB00053F04EFC552384F8FE316FF05503C4F882
:109BC000F051C4F8F451C4F8F85184F8FC5184F809
:109BD000FD5184F8FF3114E74FF400720021204654
:109BE00053F036FC7E4B03CB45F6EB0323809023EA
:109BF000C4F80710A37002220821F823C4F8030058
:109C0000617322746375DBF8A83D2273A27384F834
:109C10002C20DBF8B02D9B1A2362DBF8B82DDBF883
:109C2000BC3D9B1A63620023E372E3736377A377FF
:109C3000E37784F82D3084F82E3084F82F3084F8C0
:109C40003130684BA361684BC4F842303E23237720
:109C5000012384F83030654A802384F8403084F84A
:109C600046104AF65521A4F8FE1103CA604BC4F809
:109C70004700C4F84B1003CB1388A4F84F309378F7
:109C8000C4F85200C4F8561084F85130B9E64FF4C5
:109C900000720021204653F0DBFB002E44D12B6CD8
:109CA00004F12008002B7BD02B6B52491122CDE907
:109CB00000662046FFF700FE2B6C1A6C002A7ED04F
:109CC0001B6B4D49CDE9006640461122FFF7F4FDBC
:109CD00004F140084FF4E0736DE0F91A20464DF0AE
:109CE00053FB8EE6FF2284F8C1214FF6FF72A4F8E1
:109CF000BF21374A013B93427FF710AFFF2384F81F
:109D0000C5314FF6FF73A4F8C33129E741464FF43C
:109D10000072204653F09CFB73E6384A231F43F839
:109D2000042F9A45FBD16CE6D5E910253301002AB2
:109D300043D0023B002D3FF464AE013BAD6CF9D142
:109D4000A0464FF40073002D3FF45BAECDE9027ADC
:109D500008EB0306A24608E00024CDE900C4FFF7A3
:109D6000ABFDAD6CBDB1B04515D02C7929682B6B1E
:109D7000404605F11C0C112208F12008002CEBD103
:109D80006A792C6942F02102CDE900C4FFF794FD05
:109D9000AD6C002DE7D15446029FDDF80CA030E6F3
:109DA000CDE900663346DBF8AC1D08222046FFF7FC
:109DB00083FD4FF4F0736D6CC5E7013BBAE7CDE965
:109DC00000660D49334640461122FFF775FD7FE7D7
:109DD000FF03FB00832008829755454181808080E6
:109DE000785306083F00FF0029940E0D845306089F
:109DF000905306087053060874530608DEADBEEF94
:109E0000681A002010B4EFF31183102282F3128835
:109E10000A4C0B48D4F8802D4FF0E0210132C4F8F1
:109E2000802D8A69C0F80C210022C0F810210A692F
:109E3000DBB283F311885DF8044B7047681A002089
:109E4000602B002030B4EFF31183102282F31288CC
:109E50004FF0E0220F4894691169C90344BF012102
:109E6000C0F810110C4948BF9469D1F8805DD0F852
:109E70001021DBB283F31188D1F8D81D4FF47A702A
:109E80002A4400FB01F31B1B30BCB3FBF1F300FBC6
:109E900002307047602B0020681A002030B50C4655
:109EA00083B00546D8B1036803F13F4303F57E0351
:109EB0009B0A0C4A134493F800044EF005F8C4F3CF
:109EC0004112C4F30013CDE90032C4F38103A98821
:109ED000286804F003024FF087FE03B030BD4FF056
:109EE000FF33E6E758D8050800B1D7E7704700BF51
:109EF00070B50E4C94F8CC68B6B104F591640025A9
:109F000004E00135B54204F120040DD0237F002B7D
:109F1000F7D0E0680028F4D0217D0135FFF7BEFFBF
:109F2000B54204F12004F1D1012070BD681A00206F
:109F300010B40F4B0F4C4FF0E02CD3F8802DDCF811
:109F40001800D3F8801D8A42F7D1D4F80C1188424A
:109F5000F3D8D3F8D84D4FF47A7101FB04F31B1AF0
:109F6000B3FBF4F35DF8044B01FB0230704700BF14
:109F7000681A0020602B0020184B5B68C3F30803AD
:109F80001BB9EFF3118303B9D2E730B4EFF31182B9
:109F9000102383F312884FF0E02311489C6919695C
:109FA000C90344BF0121C0F810110E4948BF9C6984
:109FB000D1F8805DD0F81031D2B282F31188D1F897
:109FC000D81D4FF47A722B4402FB01F0001B30BC09
:109FD000B0FBF1F002FB0300704700BF00ED00E0B2
:109FE000602B0020681A00202DE9F04F037D0268E5
:109FF0001F2B83B0044609D95068A3F12005202106
:10A00000A940014207D103B0BDE8F08F10682021BC
:10A0100099400142F7D04A49D4F81880494D486820
:10A02000494F8C2101FB0851C7F8140117F89DCC4A
:10A03000D1F8D8080668BCF1000F19D1D1F8500941
:10A04000B1F8DCC8016821F001010160B18989B271
:10A0500021EA0C01B18195F88110C1B91F2B62D999
:10A06000A3F1200120238B40D36003B0BDE8F08F23
:10A070000069016821F001010160B18921F480715A
:10A080000904090CB18195F881100029E6D04FF040
:10A090008C0909FB08F905EB0903DFF8B0B0D3F828
:10A0A00050291046CDE9002349F0ECFF019B012225
:10A0B00083F82429D7F81C3109F1180ADA44002B57
:10A0C00038D033889BB243F08003338009F17409A0
:10A0D0004FF0FF330BEB0901F36230464AF05AFBB5
:10A0E0008C2303FB0855514600230098C5F8F4382B
:10A0F0004AF05EF8D5F8503916225A601A6842F0D4
:10A1000001021A60D5F8D828B5F8DC3812689189B0
:10A110000B439BB293810A49237D49682268C7F8A3
:10A1200018111F2B9CD8202101FA03F3936003B070
:10A13000BDE8F08FFFF720FFC7F81C01C1E700BFA3
:10A14000001000E0681A0020602B00203823002057
:10A150002DE9F04FC74F85B097F8813003931BB9B5
:10A16000012005B0BDE8F08FDFF818B3D7F8803DC7
:10A1700002930BF5387597F8CC38019307F5916782
:10A180004FF0000AABF59074A846019B9A4500F089
:10A19000E080BB69D7F80490D3E93A65FFF7ECFE9D
:10A1A00000904FEA890000F1085094F8099500EBFF
:10A1B000461005F1806194F808653939B9F1540FFA
:10A1C00000EB811100EB861301D1A4F812659942CE
:10A1D00040F23D811A68002A00F032811A6C002A90
:10A1E00000F04381D3F88020002A00F04081D3F8AA
:10A1F000C02003F58073002AE9D1181A99424FEA6A
:10A20000A01040F22481291A45294FF0000628BFEA
:10A21000452103EB81119E463546B4460DE01A6C8C
:10A22000002A40F0B680D3F88020002A40F0DC807D
:10A23000D3F8C02003F580732AB9994206D91A6869
:10A24000002AECD04033994200F2A7806646112ED6
:10A2500040F20181DCF1150200F1FD808649D1F860
:10A26000C830984238BFC1F8C800D4F81C350098EF
:10A27000C11A002918DB03F5F42303F59073984203
:10A2800084BF03460533C4F81C357B4B7A49D3F8A9
:10A29000C830052B86BF053BDBB2002384F80835A8
:10A2A0004FF0FF33C1F8C83032B105FA02F2C6F1FF
:10A2B00014060125B54015437048C5F3C43300EBBF
:10A2C0008303D3F8501B05F01F0300EB8303D3F87F
:10A2D000502B42EA0132C5F3441100EB8101C5F372
:10A2E000842300EB8303D1F8501BD3F8503B42EAA0
:10A2F000011242EA032383EA132282EA121202F0D5
:10A300000F01D4F808240F2902F1010240F08780E0
:10A31000B3F5803F80F08380B9F1540F4FEA1313F7
:10A320001ED0B3F5606FC4F8082423D0A8F80C3011
:10A330000399029A58460EF06DFD0AF1010ABAF12E
:10A34000080F0BF15C0B07F1200708F114087FF4EC
:10A350001CAF0123012084F8043505B0BDE8F08F5F
:10A36000B4F80C15C4F808240131B3F5606FA4F8F3
:10A370000C15DBD114F89F2C02EB420204EBC20255
:10A38000524412F88F2C0D2AD0D1802388F81E3029
:10A39000CEE7803399427FF659AFA3EB0E06384AD9
:10A3A000B611013682FB06E2A2EBE672012AB8BFC3
:10A3B0000122954001269444013A06FA02F215431F
:10A3C0001E46326892B1326C002A5DD0D6F88020E9
:10A3D000002A5BD0D6F8C02006F580763AB1B142AB
:10A3E000EFD89E46334628E7C0332CE74036B142CB
:10A3F000F7D9F21A9211224B013283FB02E3A3EB4D
:10A40000E273012BB8BF01239D409C440122013B14
:10A4100002FA03F31D4333469E4633460DE7B9F176
:10A42000540F04D1B4F80C350133A4F80C35D4F82A
:10A430000434C4F808240133C4F80434002178E754
:10A440004033181A99424FEAA0103FF6DCAE16B11D
:10A45000013E84F80865B9F1540F7FF46EAFB4F88B
:10A460000E350133A4F80E3567E78033C5E6C033F7
:10A47000C3E600BF681A00209801002058D80508DC
:10A4800056555555802C00208036B0E7C036AEE7D3
:10A49000274B5B68C3F308032DE9F0410446002B0A
:10A4A00042D1EFF31183002B3ED1FFF741FD064669
:10A4B0001F4FDFF884801F4D04E0FFF739FD831B39
:10A4C000A3422FD27B68C3F308031BB9EFF31183B8
:10A4D000002BF2D0EFF31183102282F312884FF099
:10A4E000E0220120D2F818C01169C90344BFC5F8A1
:10A4F0001001D2F818C0D8F880EDD5F81021DBB2E1
:10A5000083F31188D8F8D80D4FF47A7101FB00F36A
:10A510007244A3EB0C03B3FBF0F301FB0230831B8B
:10A52000A342CFD3BDE8F081FFF78CFC0646BFE71E
:10A5300000ED00E0602B0020681A00202DE9F843B0
:10A54000294CDFF8AC90294D471E10266368C3F3F1
:10A550000803002B43D1EFF31183002B3FD1FFF70A
:10A56000E7FC804606E0FFF7E3FCA0EB0800B0F54F
:10A570007A7F30D26368C3F308031BB9EFF311830A
:10A58000002BF0D0EFF3118286F312884FF0E02316
:10A590000120D3F818C01969C90344BFC5F81001D8
:10A5A000D3F818C0D9F880EDD5F81031D2B282F3C3
:10A5B0001188D9F8D81D4FF47A7202FB01F0734468
:10A5C000A0EB0C00B0FBF1F002FB0300A0EB0800D5
:10A5D000B0F57A7FCED3013FB8D2BDE8F883FFF75C
:10A5E00031FC8046C6E700BF00ED00E0602B002094
:10A5F000681A00202DE9F04101302E4C4F1E5FFA01
:10A6000080F84DF003FF4FF4FA766368C3F3080354
:10A61000002B4BD1EFF31183002B47D1FFF788FCC0
:10A62000054605E0FFF784FC401BB0F57A7F0DD2AC
:10A630006368C3F308031BB9EFF31183002BF1D058
:10A64000FFF700FC401BB0F57A7FF1D3013EDCD16F
:10A6500040464EF07FF84FF47A766368C3F3080300
:10A6600003BBEFF31183EBB9FFF762FC054605E08E
:10A67000FFF75EFC401BB0F57A7F0DD26368C3F331
:10A6800008031BB9EFF31183002BF1D0FFF7DAFBBE
:10A69000401BB0F57A7FF1D3013EDED1013FB0D24D
:10A6A000BDE8F081FFF7CEFB0546E7E7FFF7CAFB01
:10A6B0000546BDE700ED00E02DE9F843294B5B6856
:10A6C000C3F30803002B40D1EFF31183002B3CD1DF
:10A6D000FFF72EFC0546244F224ED7F884404FF05A
:10A6E0000008002C2DDD00231A4607EB032101335F
:10A6F00091F879119C4242EA0102F6D142EA080936
:10A700005FFA89F990467368C3F30803B3B9EFF3AE
:10A7100011839BB9FFF70CFC401BB0F5FA6F02DC0C
:10A72000B8F1000FDDD1B9F1000F04D00F4B93F851
:10A730000925542A0DD04846BDE8F883FFF782FB6F
:10A74000EAE7C1464FF00008DDE7FFF77BFB05466F
:10A75000C1E7B3F810250132A3F810254846BDE83B
:10A76000F88300BF00ED00E0681A0020602B002095
:10A77000F8B5234F17F8A02C17F89F3C9A423AD10E
:10A780002048D0F88450002D11DD90F8816000241D
:10A79000883016B1037E012B27D00269136801347B
:10A7A00043F00103AC4200F580701360F1D1164B09
:10A7B0005B68C3F30803ABB9EFF3118393B9FFF7F9
:10A7C000B7FBD7F82045002C0BDD104A02EBC40480
:10A7D000116893888889083203439BB294428B8125
:10A7E000F6D1F8BDFFF72EFBEBE7002380F8F03041
:10A7F000FDF730FFD1E750F0A5FA0028C0D1F8BD31
:10A80000602B0020681A002000ED00E0843000205A
:10A81000F8B5C0F30D0406460F46ECB13D6849F0AB
:10A82000F5FC092815D1444C236923F440732361B6
:10A83000236943F400732361236943F00103236117
:10A84000356049F0E3FC2369092823F00103236103
:10A850006FD06FF0020035E0384B394A93422BD36A
:10A8600002F58042934226D302F5804293422AD3D6
:10A87000344A934229D902F58032934227D902F50E
:10A880000032934225D902F50032934223D902F5D2
:10A890000032934221D902F5003293421FD902F5CA
:10A8A000802293421DD9B3F1016F1CD305204DF0D6
:10A8B000F5FF4DF0A3FD082449F0A8FC092814D0A9
:10A8C0004FF0FF30F8BD1024F6E71824F4E72024F9
:10A8D000F2E72824F0E73024EEE73824ECE74024C0
:10A8E000EAE74824E8E75824E6E7134D2B6923F408
:10A8F00040732B612B6943F400732B612B6923F0A8
:10A90000F8032B612B691C4344F002042C612B6972
:10A9100043F480332B6149F079FC2B6923F0020367
:10A920002B612B69092823F0F8032B613FF476AFE4
:10A93000C6E70020C6E700BF003C02400040000818
:10A9400000400008FFFF000843680B4A23F04073F3
:10A9500023F4807343F48073436083681A4042F0A9
:10A9600002028260C36A0139C9B223F4700343EA68
:10A970000153C362704700BFFDF7FFC0704700BFBF
:10A980000020FDF74FBB00BF0120FDF74BBB00BF10
:10A990000220FDF747BB00BF10B1036882881A830D
:10A9A000704700BF10B1036882885A83704700BFA8
:10A9B000F8B50468D4E904235568117D1768002BA5
:10A9C00040D01F295E6898612CD820228A4042F02E
:10A9D0001802BA601A7D19681F2A2DD9203A20233F
:10A9E000934043F01803CB6000232B60336033683F
:10A9F000A16943F010033360284649F0D9FBE169AF
:10AA0000304649F0D5FB2B68626843F001032B60A8
:10AA1000336843F00103336093889BB243F0030330
:10AA20009380F8BD203920228A4042F01802FA6053
:10AA30001A7D19681F2AD1D82023934043F01803A8
:10AA40008B60D1E71F29906119D820238B4043F0F8
:10AA50001803BB6000232B602B68A16943F010032F
:10AA60002B60284649F0A4FB2B68626843F0010381
:10AA70002B6093889BB243F002039380F8BD20398A
:10AA800020238B4043F01803FB60E3E7F0B5056833
:10AA900090F888606B688488012285F824201A88E1
:10AAA00022F040021204120C1A802A89A24216D007
:10AAB000B4F5807F2146A8BF4FF4807102291A881F
:10AAC000B8BF022191FAA1F192B2B1FA81F122F05C
:10AAD0003802013942EAC10292B21A802C81017B0C
:10AAE000AA7A8A420BD01A8822F003021204120CAE
:10AAF0001A801A8892B2002944D01A80A9721A8842
:10AB00002F7B92B242F040021A802B6A9A6892B36D
:10AB10004FF0000C1D4C1433E64653F8101C9644BD
:10AB200001EA040221B1B2F1805F27D06A692AB339
:10AB300053F8142C143302EA040112B1B1F1805F0E
:10AB40001CD053F80C2C0CF1010C002AE5D1AFB14C
:10AB5000A6B1BCF1010F0AD8BEF1070F07D80CEB64
:10AB60008C0C4FEA8C022B6A13441B7B33B9BDE873
:10AB7000F04048F025BB0FB1002EF4D1BDE8F04005
:10AB800048F0AEBB42F00302B7E700BF0000FFFF92
:10AB9000D3B2012B1DD8104B02EB420210B54FEA85
:10ABA000820E0EF1080403F5EE7C02E01C336345CF
:10ABB0000DD01A788242F9D15A788A42F6D11A59C0
:10ABC000002AF3D00EF1040E03EB0E0010BD00209E
:10ABD00010BD0020704700BF28E4050810B40C4CDD
:10ABE000002304F2445C01E0152B0CD003EB43027C
:10ABF00001331CF802108142F6D1144494F9460541
:10AC00005DF8044B70474FF0FF305DF8044B704720
:10AC1000602B002070B502EB4202104C4FEA820E0E
:10AC200023460EF10C05002204E00132172A03F13D
:10AC30002C0310D01E688642F7D193F804C08C45CF
:10AC4000F3D15E59002EF0D02C210EF1080301FB48
:10AC50000233E01870BD002070BD00BF58D8050851
:10AC60000348D0F8DC300BB1CC301847704700BF38
:10AC7000980100200348D0F800310BB1F03018479C
:10AC8000704700BF980100200348D0F8243113B169
:10AC900000F58A7018477047980100200348D0F8E3
:10ACA000483113B100F59C70184770479801002097
:10ACB0000348D0F86C3113B100F5AE7018477047F7
:10ACC000980100200348D0F8903113B100F5C0700E
:10ACD00018477047980100200348D0F8B43113B1E9
:10ACE00000F5D27018477047980100200348D0F84B
:10ACF000D83113B100F5E47018477047980100206F
:10AD00000348D0F8FC3113B100F5F67018477047CE
:10AD1000980100200348D0F8203213B100F50470E8
:10AD200018477047980100200348D0F8443213B107
:10AD300000F50D7018477047980100200348D0F8BF
:10AD4000683213B100F5167018477047980100205B
:10AD50000348D0F88C3213B100F51F7018477047C4
:10AD6000980100200348D0F8B03213B100F52870E4
:10AD700018477047980100200348D0F8D43213B127
:10AD800000F5317018477047980100200348D0F84B
:10AD9000F83213B100F53A70184770479801002057
:10ADA000094B0A4A013800EBC00003EB8003084856
:10ADB000D3F8CC30116B834214BF4FF480034FF4AF
:10ADC00000130B43136370479801002000380240C2
:10ADD00000600240F0B401383B4C3C4E3C4D00EB6F
:10ADE000C00C04EB8C0CDCF8CC70AF4214BF4FF4F9
:10ADF00080054FF40015376B3D433563354DCCF876
:10AE0000E430DCF8D030CCF8DC10AB424FEAC001C3
:10AE10003FD005F58065AB423BD0A5F57A75AB42D6
:10AE200046D005F58065AB4242D0A5F57A75AB42B8
:10AE300040D005F58065AB423CD0A5F57A75AB42B4
:10AE400034D005F58065AB4230D0A5F57A75AB42BC
:10AE500032D005F58065AB422ED0A5F57A75AB42B0
:10AE60002CD005F58065AB4228D0A5F57A75AB42AC
:10AE700026D005F58065AB4222D0A5F57A75AB42A8
:10AE800020D0154D06F532563836B34218BF00258E
:10AE900000E0124D0B1804EB8304C2F3871194F801
:10AEA000E100C4F8EC50F0BC4DF004BE0C4DF1E7ED
:10AEB0000C4DEFE70C4DEDE70C4DEBE70C4DE9E7E2
:10AEC0000C4DE7E7044DE5E798010020003802400B
:10AED00000600240106002400080002820800010C6
:10AEE00000800018008800100080201020800020C2
:10AEF00000880020008020202DE9F04F774A92F84A
:10AF00009535012B85B01ED0022B12D00023019362
:10AF1000734C012604F178082378022B15D00136F2
:10AF2000042E04F1280408F10508F5D105B0BDE8A8
:10AF3000F08F92F88A3533B192F88635083B18BF06
:10AF400001230193E4E70193E2E798F90350F3B298
:10AF50006A1C18BFEDB203F1FF3912BFAA464FF0C9
:10AF6000010A002502935FFA89F96AB24946002076
:10AF7000FFF70EFE8346002800F09F8040680EF029
:10AF8000F7F90746A0F109030198029A142110B1BC
:10AF9000072B40F2978038460EF0D6F9002800F0D3
:10AFA0008C805048DBF808107B1E5A4203EBC30527
:10AFB00002F0070200F1CC0B03F0070358BF534225
:10AFC00000EB85020BEB85052561384682F8D4300D
:10AFD000C2F8D810FFF7E4FE98F90420531C78D08B
:10AFE0005FFA82FBCDF80CB04FFA8BF24946012094
:10AFF000FFF7CEFD0546002840D040680EF0B8F9B6
:10B00000019B029A8246132109380BB107283CD9CB
:10B0100050460EF099F988B33248AB680AF1FF3216
:10B02000514202EBC20501F0070100F1CC0B02F026
:10B03000070258BF4A4200EB85010BEB85056561AD
:10B04000504681F8D420C1F8D830FFF7A9FE002F70
:10B050003AD0BAF1000F1BD02846FDF7E9F9206974
:10B06000FDF7E6F92046FDF7B3F900231A461E491D
:10B070005046FFF7AFFE0123237350E7039B0BF10C
:10B08000010B5FFA8BFB9B45AED9EFB1DFF860B0E7
:10B090007B1E242202FB03B0002520616561FDF7C1
:10B0A000C7F92046FDF794F92B4610492A46384641
:10B0B000FFF790FE0123237331E70135EDB2AA4576
:10B0C000BFF453AF002787E700220023C4E904231D
:10B0D00025E7012303934FF0000B85E7602B002049
:10B0E0001031002098010020D9970008119800081D
:10B0F0006402002048B182880449B2FA82F20868EA
:10B100004FF00043D34003430B607047003C0140C5
:10B110000120FEF75FBA00BF0220FEF75BBA00BF56
:10B120000420FEF757BA00BF0820FEF753BA00BF4D
:10B130001020FEF74FBA00BF4FF47870FEF74ABAFE
:10B140004FF47C40FEF746BAF0B5054683B0A0B395
:10B1500007681D4B144607F13F4202F57E0203EBE0
:10B1600092230E4693F800044CF0AEFEA988B1FA83
:10B1700081F3C3F11F03C3F3CC0207EB820203F098
:10B180000703156A4FF00F0C9B009C400CFA03F369
:10B1900025EA03031362136A1C431462C6F3001307
:10B1A000C6F34112CDE900323846C6F3810306F0FA
:10B1B00003024EF019FD03B0F0BD034B93F8FF03FB
:10B1C0004CF082FE2B68FFDE58D8050800B1BBE7C3
:10B1D000704700BF431C00F03D812DE9F04F00EBAC
:10B1E0008003B34F87B057F8339082000192054631
:10B1F00007EBC302B9F1000F04D094682CB194F9A5
:10B20000063013B107B0BDE8F08FAB002B4407EB5D
:10B21000C303D3F80CA0BAF1000F03D09AF906309B
:10B22000002BEFD1AB002B44DB001833F8180022C1
:10B23000691CD9F80480FA50C9B2C0E90122C26081
:10B24000002C00F096811523E171A37199F8280074
:10B25000BAF1000F00F07B8116238AF807108AF8F4
:10B2600006304CF031FEB8F804302268A08823F490
:10B2700040731B041B0CA8F80430DAF8003010836C
:10B28000BAF804201A8311212046FEF707FE112187
:10B290005046FEF703FE09264FF0330B2CB9D3E0DE
:10B2A000BBF1010B06D04DF05DFB2268A18810694F
:10B2B0000142F5D051834DF0A9FB2368A2881A837F
:10B2C0004DF0A4FB013EE7D1002C00F0EE803326C8
:10B2D00003E0013E06D04DF045FB2268A1881369CA
:10B2E0001942F6D051834DF091FBBAF1000F00F0F6
:10B2F0001381DAF80030BAF804205A834DF086FB47
:10B300002368A2881A834DF081FBDAF80030BAF87E
:10B3100004201A834DF07AFB2368A2881B691A4225
:10B3200040F09980019B2B4407EBC303997C1A7C66
:10B33000002940F09C8020461221FFF705FF1221D2
:10B34000019B2B4407EBC3035A7C5046FFF7FCFEDE
:10B35000584B984500F02781574B984500F02E81B7
:10B36000564B984500F03581019B2B4407EBC303F6
:10B370004FF47A729C8AB8F8043023F440731B04AB
:10B380001B0CA8F80430B8F800309BB243F001035E
:10B39000A8F80030B8F8045002A802FB04F425F025
:10B3A0003F0548F023FE0499454B2D04A3FB0123E0
:10B3B0002D0C45EA9345A8F80450B8F8002022F077
:10B3C00001021204120CA8F800203E4A980C944284
:10B3D000034652DC6200B1FBF2F292B20133042A5E
:10B3E00038BF0422A8F82030A8F81C20B8F8003094
:10B3F0009BB243F00103A8F80030B8F8003023F402
:10B40000816323F002031B041B0C4FF4804243F4BE
:10B410008063A8F80030A8F80820B8F8003023F0BE
:10B4200080031B041B0CA8F8003099F82A000021A7
:10B430004DF040FB99F82900002107B0BDE8F04F1E
:10B440004DF038BB4DF08EFABBF1010BFAD14DF047
:10B45000DDFA35E77047019BDAF800202B4407EB53
:10B46000C30312699A7C002A00F0BE801A7C322144
:10B470002046FFF769FE322162E704EB4404B1FB8A
:10B48000F4F18AB2C1F30B0109B942F001020E498D
:10B490004FF4967300FB03F3A1FB03139B090133E5
:10B4A00042F40042A8F820309EE7332410E000BFA9
:10B4B000681A00200054004000580040005C004022
:10B4C00083DE1B43A0860100D34D62104DF04AFA83
:10B4D000013CFBD14DF09AFABAF1000F00F08A80DE
:10B4E000DAF80030BAF804205A834DF08FFA4DF0A4
:10B4F0008DFADAF80030BAF804201A834DF086FA93
:10B50000019B2B4407EBC3039A7C002A18BF32210E
:10B510005A7C08BF122118E74DF078FA2368A288F8
:10B520001A834DF073FA4DF071FA2368A2881B69F3
:10B530001A4266D1019B2B4407EBC303997C1A7C0A
:10B5400000296DD020463221FFF7FEFD00E74CF0C8
:10B55000BBFCB8F80430A28823F440731B041B0C16
:10B56000A8F80430236811211A832046FEF796FCC0
:10B5700091E699F82800BAF1000F56D016238AF800
:10B5800006308AF807104CF09FFCB8F80430BAF87F
:10B59000042023F440731B041B0CA8F80430DAF8D1
:10B5A00000301A8373E603F5F2331A6A42F400128C
:10B5B0001A621A6A22F400121A62D5E603F5F03311
:10B5C0001A6A42F480021A621A6A22F480021A622B
:10B5D000CAE603F5EE331A6A42F400021A621A6AE6
:10B5E00022F400021A62BFE61A7C20461221FFF7FD
:10B5F000ABFDA4E64DF00AFA4DF008FA4DF006FA5C
:10B60000A6E6019B2B4407EBC30320469A7C002A45
:10B6100018BF32211A7C08BF1221FFF795FD97E66B
:10B6200020461221FFF790FD92E64CF04DFCB8F851
:10B63000043023F440731B041B0CA8F804302AE6E2
:10B640002DE9F8430746FEF7FDFBDFF8508007EBD6
:10B650008709044608EBC90542F20F7604E0FEF7BD
:10B66000F1FB001BB0420ADC6B7E002BF7D108EB2C
:10B67000C90898F8180080F00100BDE8F883064A70
:10B68000B2F83836013338469BB2A2F83836FFF7A5
:10B69000A1FD0020BDE8F883602B0020681A00207F
:10B6A000B0F1FF3F68D02DE9F04F022883B0044687
:10B6B00014DCDFF8CCB01E4600EB80030BEBC305B7
:10B6C000DB00D5F804A00093BAF1000F06D088463D
:10B6D000697E914601F0FF02019219B1002003B08A
:10B6E000BDE8F08FFEF7AEFB009B019A20334FEAD6
:10B6F0004801C9B207460BEB0300A9764FF0010CD5
:10B700000C9985F81B906A7785F81EC04BF80310DA
:10B7100041602E7785F819C02A76BAF80430990569
:10B720001DD4BAF80030DA0512D442F20F7504E0E5
:10B73000FEF788FBC31BAB4213DCBAF800309B0555
:10B74000F6D4BAF800309BB243F48073AAF8003004
:10B75000BAF804309BB243F44073AAF804300120D5
:10B76000BDE7064AB2F8383601339BB22046A2F84C
